{
  "contractName": "Pool",
  "abi": [
    {
      "inputs": [
        {
          "internalType": "address",
          "name": "token0_addr",
          "type": "address"
        },
        {
          "internalType": "address",
          "name": "token1_addr",
          "type": "address"
        },
        {
          "internalType": "uint256",
          "name": "k",
          "type": "uint256"
        }
      ],
      "name": "setConfig",
      "outputs": [],
      "stateMutability": "nonpayable",
      "type": "function"
    },
    {
      "inputs": [],
      "name": "fetchAmounts",
      "outputs": [
        {
          "internalType": "uint256[]",
          "name": "",
          "type": "uint256[]"
        }
      ],
      "stateMutability": "view",
      "type": "function",
      "constant": true
    },
    {
      "inputs": [
        {
          "internalType": "uint256",
          "name": "token0_amt",
          "type": "uint256"
        },
        {
          "internalType": "uint256",
          "name": "token1_amt",
          "type": "uint256"
        }
      ],
      "name": "provideLiquidity",
      "outputs": [],
      "stateMutability": "nonpayable",
      "type": "function"
    },
    {
      "inputs": [
        {
          "internalType": "bool",
          "name": "zeroToOne",
          "type": "bool"
        },
        {
          "internalType": "uint256",
          "name": "amt",
          "type": "uint256"
        }
      ],
      "name": "swap",
      "outputs": [
        {
          "internalType": "uint256",
          "name": "delta_y",
          "type": "uint256"
        }
      ],
      "stateMutability": "payable",
      "type": "function",
      "payable": true
    }
  ],
  "bytecode": "0x608060405234801561001057600080fd5b50610910806100206000396000f3fe60806040526004361061003f5760003560e01c80637a16af7f14610044578063902835f614610066578063c037646a146100ce578063e3a7e9cd146100f4575b600080fd5b34801561005057600080fd5b5061006461005f36600461073f565b610116565b005b34801561007257600080fd5b5061006461008136600461077d565b600080546001600160a01b039485166001600160a01b0319918216811790925560018054949095169381168417909455600280548516909117905560038054909316909117909155600455565b6100e16100dc3660046107ca565b610388565b6040519081526020015b60405180910390f35b34801561010057600080fd5b5061010961051b565b6040516100eb91906107f6565b6002546040516370a0823160e01b81523360048201526000916001600160a01b0316906370a0823190602401602060405180830381865afa15801561015f573d6000803e3d6000fd5b505050506040513d601f19601f82011682018060405250810190610183919061083a565b6003546040516370a0823160e01b81523360048201529192506000916001600160a01b03909116906370a0823190602401602060405180830381865afa1580156101d1573d6000803e3d6000fd5b505050506040513d601f19601f820116820180604052508101906101f5919061083a565b9050838210156102455760405162461bcd60e51b81526020600482015260166024820152756c61636b206f6620746f6b656e302062616c616e636560501b60448201526064015b60405180910390fd5b8281101561028e5760405162461bcd60e51b81526020600482015260166024820152756c61636b206f6620746f6b656e312062616c616e636560501b604482015260640161023c565b60025460405163a9059cbb60e01b8152306004820152602481018690526001600160a01b039091169063a9059cbb906044016020604051808303816000875af11580156102df573d6000803e3d6000fd5b505050506040513d601f19601f820116820180604052508101906103039190610853565b5060035460405163a9059cbb60e01b8152306004820152602481018590526001600160a01b039091169063a9059cbb906044016020604051808303816000875af1158015610355573d6000803e3d6000fd5b505050506040513d601f19601f820116820180604052508101906103799190610853565b50610382610658565b50505050565b600080836103a1576003546001600160a01b03166103ae565b6002546001600160a01b03165b90506000846103c8576002546001600160a01b03166103d5565b6003546001600160a01b03165b6040516370a0823160e01b815233600482015290915084906001600160a01b038416906370a0823190602401602060405180830381865afa15801561041e573d6000803e3d6000fd5b505050506040513d601f19601f82011682018060405250810190610442919061083a565b10156104825760405162461bcd60e51b815260206004820152600f60248201526e6c61636b206f662062616c616e636560881b604482015260640161023c565b836004546104909190610877565b6040516323b872dd60e01b8152306004820152336024820152604481018290529093506001600160a01b038216906323b872dd906064016020604051808303816000875af11580156104e6573d6000803e3d6000fd5b505050506040513d601f19601f8201168201806040525081019061050a9190610853565b50610513610658565b505092915050565b60408051600280825260608083018452926000929190602083019080368337019050506002546040516370a0823160e01b81523060048201529192506001600160a01b0316906370a0823190602401602060405180830381865afa158015610587573d6000803e3d6000fd5b505050506040513d601f19601f820116820180604052508101906105ab919061083a565b816000815181106105be576105be610899565b60209081029190910101526003546040516370a0823160e01b81523060048201526001600160a01b03909116906370a0823190602401602060405180830381865afa158015610611573d6000803e3d6000fd5b505050506040513d601f19601f82011682018060405250810190610635919061083a565b8160018151811061064857610648610899565b6020908102919091010152919050565b6003546040516370a0823160e01b81523060048201526001600160a01b03909116906370a0823190602401602060405180830381865afa1580156106a0573d6000803e3d6000fd5b505050506040513d601f19601f820116820180604052508101906106c4919061083a565b6002546040516370a0823160e01b81523060048201526001600160a01b03909116906370a0823190602401602060405180830381865afa15801561070c573d6000803e3d6000fd5b505050506040513d601f19601f82011682018060405250810190610730919061083a565b61073a91906108af565b600455565b6000806040838503121561075257600080fd5b50508035926020909101359150565b80356001600160a01b038116811461077857600080fd5b919050565b60008060006060848603121561079257600080fd5b61079b84610761565b92506107a960208501610761565b9150604084013590509250925092565b80151581146107c757600080fd5b50565b600080604083850312156107dd57600080fd5b82356107e8816107b9565b946020939093013593505050565b6020808252825182820181905260009190848201906040850190845b8181101561082e57835183529284019291840191600101610812565b50909695505050505050565b60006020828403121561084c57600080fd5b5051919050565b60006020828403121561086557600080fd5b8151610870816107b9565b9392505050565b60008261089457634e487b7160e01b600052601260045260246000fd5b500490565b634e487b7160e01b600052603260045260246000fd5b80820281158282048414176108d457634e487b7160e01b600052601160045260246000fd5b9291505056fea2646970667358221220112c692284f4b8e692dccc149886dda4df3c6c852813d6c8f70f47a46af8d04964736f6c63430008110033",
  "immutableReferences": {},
  "source": "// contracts/GLDToken.sol\n// SPDX-License-Identifier: MIT\npragma solidity ^0.8.0;\n\nimport 'openzeppelin-solidity/contracts/token/ERC20/ERC20.sol';\nimport './Token0Contract.sol';\nimport './Token1Contract.sol';\n\ncontract Pool {\n    address token0Address;\n    address token1Address;\n    ERC20 token0;\n    ERC20 token1;\n    uint256 K;\n    \n    function setConfig(address token0_addr, address token1_addr, uint256 k) public {\n        token0Address = token0_addr;\n        token1Address = token1_addr;\n        token0 = Token0(token0Address);\n        token1 = Token1(token1Address);\n        K = k;\n    }\n\n    function fetchAmounts() public view returns( uint256[] memory ) {\n        uint256[] memory ret = new uint256[](2);\n        ret[0] = token0.balanceOf(address(this));\n        ret[1] = token1.balanceOf(address(this));\n        return ret;\n    }\n\n    function provideLiquidity(uint256 token0_amt, uint256 token1_amt) public{\n        uint256 userToken0Balance = token0.balanceOf(msg.sender);\n        uint256 userToken1Balance = token1.balanceOf(msg.sender);\n        require(userToken0Balance >= token0_amt, \"lack of token0 balance\");\n        require(userToken1Balance >= token1_amt, \"lack of token1 balance\");\n        token0.transfer(address(this), token0_amt);\n        token1.transfer(address(this), token1_amt);\n\n        setK();\n    }\n\n    function swap(bool zeroToOne, uint256 amt) public payable returns(uint256 delta_y)  {\n        ERC20 token_x = zeroToOne ? token0 : token1;\n        ERC20 token_y = zeroToOne ? token1 : token0;\n\n        require(token_x.balanceOf(msg.sender) >= amt, \"lack of balance\");\n        delta_y = uint256(K / amt);\n        token_y.transferFrom(address(this), msg.sender, delta_y);\n\n        setK();\n    }\n\n    function setK() internal {\n        K = token0.balanceOf(address(this)) * token1.balanceOf(address(this));\n    }\n}",
  "sourcePath": "/Users/minjae/workspace/blockchain/playground/contracts/Pool.sol",
  "compiler": {
    "name": "solc",
    "version": "0.8.17+commit.8df45f5f.Emscripten.clang"
  },
  "schemaVersion": "3.4.6",
  "updatedAt": "2022-11-02T14:56:13.534Z",
  "networkType": "ethereum",
  "devdoc": {
    "kind": "dev",
    "methods": {},
    "version": 1
  },
  "userdoc": {
    "kind": "user",
    "methods": {},
    "version": 1
  }
}