{
  "contractName": "User",
  "abi": [
    {
      "inputs": [
        {
          "internalType": "uint256",
          "name": "amount",
          "type": "uint256"
        }
      ],
      "name": "charge_balance",
      "outputs": [],
      "stateMutability": "nonpayable",
      "type": "function"
    },
    {
      "inputs": [],
      "name": "view_balance",
      "outputs": [
        {
          "internalType": "uint256",
          "name": "",
          "type": "uint256"
        }
      ],
      "stateMutability": "view",
      "type": "function",
      "constant": true
    }
  ],
  "bytecode": "0x608060405234801561001057600080fd5b5060e88061001f6000396000f3fe6080604052348015600f57600080fd5b506004361060325760003560e01c80630d336cb414603757806382c32743146048575b600080fd5b604660423660046074565b605d565b005b60005460405190815260200160405180910390f35b80600080828254606c9190608c565b909155505050565b600060208284031215608557600080fd5b5035919050565b8082018082111560ac57634e487b7160e01b600052601160045260246000fd5b9291505056fea2646970667358221220a4d08b21f891286aaba0c71067f20e45ccff81f91752ed3055c01b821ea201a064736f6c63430008110033",
  "immutableReferences": {},
  "source": "// contracts/GLDToken.sol\n// SPDX-License-Identifier: MIT\npragma solidity ^0.8.0;\n\ncontract User {\n    uint256 balance;\n\n    function charge_balance(uint amount) public {\n        balance += amount;\n    }\n\n    function view_balance() public view returns(uint256) {\n        return balance;\n    }\n    \n}",
  "sourcePath": "/Users/minjae/workspace/blockchain/playground/contracts/User.sol",
  "compiler": {
    "name": "solc",
    "version": "0.8.17+commit.8df45f5f.Emscripten.clang"
  },
  "schemaVersion": "3.4.6",
  "updatedAt": "2022-11-02T14:56:13.539Z",
  "networkType": "ethereum",
  "devdoc": {
    "kind": "dev",
    "methods": {},
    "version": 1
  },
  "userdoc": {
    "kind": "user",
    "methods": {},
    "version": 1
  }
}